:1000000000308A001A280000213084008313000881
:10001000031917280630F800F701F70B0D28F80B25
:100020000C287B30F700F70B1328800B0A288A1165
:100030000A12442883161F149F141F159F1183133F
:100040001F3083050912831290010030F8009200DE
:100050000030831692001F149F141F159F118312E6
:100060001F10F03097059D05013083168500003084
:10007000860083128601201005182014201C4528B4
:1000800006143230A1000428462806103B286300DD
:02400E003A3F37
:00000001FF
;PIC16F877
;CRC=8C67  CREATED="14-Mar-21 22:07"
