:1000000000308A0018280000223084008313000882
:10001000031917280630F800F701F70B0D28F80B25
:100020000C287B30F700F70B1328800B0A280800F8
:1000300083161F149F141F159F1183131F308305F0
:100040000912831290010030F800920000308316EC
:1000500092001F149F141F159F1183121F10F03060
:1000600097059D05003083168600831286010614CD
:100070000230A100FA30A2000420A10B3A28061099
:100080000230A100FA30A2000420A10B4228372838
:0200900063000B
:02400E003A3F37
:00000001FF
;PIC16F877
;CRC=E595  CREATED="14-Mar-21 22:39"
