:1000000000308A006E280000FF00030E8301A1006B
:100010000A08A0008A010408A2007708A300780853
:10002000A4007908A5007A08A600831383120B1E8A
:100030001B288B182C28220884002308F70024088A
:10004000F8002508F9002608FA0020088A00210E89
:100050008300FF0E7F0E09008A110A1243282930FF
:10006000840083130008031942280630F800F701C2
:10007000F70B3828F80B37287B30F700F70B3E28B2
:10008000800B3528080086140430A800FA30A90037
:100090002F20A80B462886100C30A800FA30A900A3
:1000A0002F20A80B4E28A7012708093C031C6A280B
:1000B00086140230A800FA30A9002F20A80B5B2874
:1000C00086100230A800FA30A9002F20A80B632860
:1000D000A70A54288B108A110A121B2883161F1492
:1000E0009F141F159F1183131F308305091283125C
:1000F00090010030F80092000030831692001F1427
:100100009F141F159F1183121F10F03097059D0536
:100110000130831686008312860183160113831231
:0A0120000B16C0308B049328630017
:02400E003A3F37
:00000001FF
;PIC16F877
;CRC=64E3  CREATED="25-Mar-21 17:42"
