:1000000000308A003B2800000A108A100A1182077B
:100010000034013402340334043405340634073424
:100020000834093423308400831300080319252879
:100030000630F800F701F70B1B28F80B1A287B3065
:10004000F700F70B2128800B182808002408F80176
:10005000230203182E282308F7003A28F701083056
:10006000A500A30DF70D240877020318F700F80D7B
:10007000A50B31280800A001A101A20183161F14BD
:100080009F141F159F1183131F30830509128312BC
:1000900090010030F80092000030831692001F1487
:1000A0009F141F159F1183121F10F03097059D0597
:1000B0000330831685000030860083122008042058
:1000C0001038A30086000530A30012202108042068
:1000D0002038A30086000530A3001220051C9228BA
:1000E000A20A2208A3000A30A40026207708A00054
:1000F0002208A3000A30A40026207808A100051CCD
:100100009228200804201038A30086000530A300A0
:100110001220210804202038A30086000530A30007
:1001200012207F28851CB928A2080319B928A20328
:100130002208A3000A30A40026207708A000220885
:10014000A3000A30A40026207808A100851CB92845
:10015000200804201038A30086000530A3001220D8
:10016000210804202038A30086000530A3001220B7
:0E017000A6282208643C0319A2015E28630041
:02400E003A3F37
:00000001FF
;PIC16F877
;CRC=3086  CREATED="20-Mar-21 19:51"
