:1000000000308A0051280000333084008313000838
:10001000031917280630F800F701F70B0D28F80B25
:100020000C287B30F700F70B1328800B0A280800F8
:1000300034080739F700340CF800F80CF80C1F30BE
:10004000F8057808350784008313361883170008ED
:10005000F800F70A2C28F80CF70B2B288A110A1243
:10006000A32834080739F700340CF800F80CF80C12
:100070001F30F80578083607840083133718831774
:10008000F801F80AF70A4528F80DF70B4428B508D7
:1000900003194D28780880045028F809780880054D
:1000A000080083161F149F141F159F1183131F3000
:1000B00083050912831290010030F800920000308D
:1000C000831692001F149F141F159F1183121F1077
:1000D000F03097059D050030831686008312860157
:1000E0003030A100A2013130A300A4013230A500BC
:1000F000A6013330A700A8013430A900AA01353089
:10010000AB00AC013630AD00AE013730AF00B0010E
:10011000B1013108073C031CBE280230B200FA309E
:10012000B3000420B20B8F280310310D213E840050
:100130008313840A0008B30084030008B200B400EB
:10014000B601B50118280030781C0130F7003208DC
:10015000B4007708B500B701B60131203208B40009
:10016000B501B7018030B60031200230B200FA305C
:10017000B3000420B20BB728B10A8928882863008D
:02400E003A3F37
:00000001FF
;PIC16F877
;CRC=44F0  CREATED="14-Mar-21 23:47"
