:1000000000308A00282800000A108A100A1182078E
:100010003F3406345B344F3466346D347C340734FB
:100020007F346F342330840083130008031925289C
:100030000630F800F701F70B1B28F80B1A287B3065
:10004000F700F70B2128800B18288A110A126D2857
:10005000A001A10183161F149F141F159F11831364
:100060001F3083050912831290010030F8009200BE
:100070000030831692001F149F141F159F118312C6
:100080001F10F03097059D050030831686008312FF
:100090008601A0012008093C031C7128A101210848
:1000A000073C031C682820080420A200F700210850
:1000B000F80003195F280310F70CF80B5B2877187A
:1000C000632806106428061486148610A10A4F2897
:1000D0000230A200FA30A3001228A20B6A28A00A5C
:0600E0004A2849286300D4
:02400E003A3F37
:00000001FF
;PIC16F877
;CRC=A199  CREATED="21-Mar-21 21:03"
