:1000000000308A002E2800000A108A100A11820788
:100010003F3406345B344F3466346D347D340734FA
:100020007F346F3477347C3439345E3479347134CE
:10003000223084008313000803192B280630F800AF
:10004000F701F70B2128F80B20287B30F700F70B7E
:100050002728800B1E288A110A125E2883161F1477
:100060009F141F159F1183131F30830509128312DC
:1000700090010030F80092000030831692001F14A7
:100080009F141F159F1183121F10F03097059D05B7
:1000900000308316850086008312860102308500B9
:1000A000A00120080F3C031C622820080420A100A6
:1000B00086000230A100FA30A2001828A10B5B28AC
:0800C000A00A5128502863003A
:02400E003A3F37
:00000001FF
;PIC16F877
;CRC=DB0D  CREATED="17-Mar-21 16:57"
