:1000000000308A0018280000213084008313000883
:10001000031917280630F800F701F70B0D28F80B25
:100020000C287B30F700F70B1328800B0A280800F8
:1000300083161F149F141F159F1183131F308305F0
:100040000912831290010030F800920000308316EC
:1000500092001F149F141F159F1183121F10F03060
:1000600097059D050030831686008312A0012008A5
:10007000073C031C422820088600FA30A100042017
:10008000A00A3728A0012008073C031C502820089C
:100090001038A1008600FA30A1000420A00A4328ED
:1000A000A0012008073C031C5E2820082038A1007E
:1000B0008600FA30A1000420A00A5128A0012008DF
:1000C000073C031C6C2820083038A1008600FA3059
:0C00D000A1000420A00A5F28362863006D
:02400E003A3F37
:00000001FF
;PIC16F877
;CRC=BCB0  CREATED="22-Mar-21 17:43"
