:1000000000308A006A280000FF00030E8301A1006F
:100010000A08A0008A010408A2007708A300780853
:10002000A4007908A5007A08A600831383128B1D0B
:100030001B280B182C28220884002308F70024080A
:10004000F8002508F9002608FA0020088A00210E89
:100050008300FF0E7F0E09008A110A124328283000
:10006000840083130008031942280630F800F701C2
:10007000F70B3828F80B37287B30F700F70B3E28B2
:10008000800B35280800061E4A280A30A8002F20B9
:1000900006145E28861E51280A30A8002F208614D8
:1000A0005E28061F58280A30A8002F2006155E2853
:1000B000861F5E280A30A8002F2086150830A7006A
:1000C000FA30A8002F20A70B602886010B108A1198
:1000D0000A121B2883161F149F141F159F118313C8
:1000E0001F3083050912831290010030F80092003E
:1000F0000030831692001F149F141F159F11831246
:100100001F10F03097059D05831686008312860127
:0A0110008B15C0308B048B286300B0
:02400E003A3F37
:00000001FF
;PIC16F877
;CRC=B9E0  CREATED="25-Mar-21 23:00"
